:0420000007EF10F0E6
:0A2008004F82AEED3CF017EF3CF004
:10201800000102030405060708092A002B202020D6
:102028002A2A4672617365206573636F6E646964FA
:1020380061203A2D29202A2A00486F6C6120416CC2
:10204800756D6E6F7300424F54312000424F54310A
:1020580000424F543200424F543300424F54340030
:012068000077
:10753200E0EC3BF09EEC3DF0FDD7010120FFFFFFA8
:107542000A04E803180EB5EC3AF05BEC3BF01200CB
:10755200010EB5EC3AF05BEC3BF01200020EB5EC1A
:107562003AF05BEC3BF01200366E84948492365013
:1075720018EC3BF01200366E84848492365018EC7C
:107582003BF01200376E3750BCEC3AF05BEC3BF04C
:10759200120001500210D8B412000106D8A002064F
:1075A2001200356EAC8A35C0ADFFACA2FED7AC9AE4
:1075B2001200376E378E3750B5EC3AF05BEC3BF089
:1075C200120005500610D8B403D00506D8A006064E
:1075D200FAEC3AF0CAEC3AF01200D59ED58CD59A64
:1075E200D596D580D582D584D10ED66ED768F28A4B
:1075F20012004B50D8B402D04B0612000A0E4B6E4A
:107602008150F00AF00B48EC3BF00A6E12000001C8
:10761200666F4E5004E1020E4D5CD8A012000001CC
:1076220066514D5E000E4E5ACDEC3EF01200356EA4
:107632000F0E8C1684803550F00B8C1284900F0E36
:107642008C1684803538F00B8C1284901200000165
:10765200666FE80E4D5C030E4E58D8B01200000162
:1076620066514D26000E4E22CDEC3EF01200CD901A
:10767200CD92CD84CD96CF0ECD16CD9ECD9C4F0E04
:10768200CE6EFB0ECF6E9E909D80F28C1200256E08
:1076920025501918266E185017182614186E1750F0
:1076A200FF0A2614176E17501810FF0A2614191A0B
:1076B20019501200F00E9512849484828480000E78
:1076C20083BE010E356E8490848083508490355041
:1076D200D8A4F4D784920F0E95161200AC84B88603
:1076E200AC98E10EAF6E040EB06EAB8EAC9CAC9A51
:1076F200AE50AE50AE50AB9C9D8AAB88F28C948C4F
:10770200948EB88A120080CF35F092CF36F09280F4
:107712000E0EC16E2D0EC06EC280C282C2B2FED7E4
:10772200C2900F0EC16E35C089FF36C092FFC450A1
:107732001200000E896E000E8A6E000E8B6E000E15
:107742008C6E000E8D6E9268936894680C0E956E26
:10775200000E966E070EB46E0F0EC16E12000CD0A4
:1077620037C0F6FF38C0F7FF0800F550BCEC3AF01E
:107772005BEC3BF0374A382A37C0F6FF38C0F7FFD8
:107782000800F5500009D8B41200EAD70001605190
:1077920000016203F3CF43F0F4CF44F000016051E3
:1077A20000016303F35044260001615100016203AA
:1077B200F350442643C060F044C061F01200CDECA7
:1077C2003EF09AEC3BF0EEEC3AF038EC3BF0F28E05
:1077D200D58ECD80F1EC3CF0A9EC3AF06FEC3BF0A9
:1077E200410E376E200E386EB0EC3BF092949296BA
:1077F2001200000E3B6E000E3B6E13D03B50010D8B
:1078020036C039F037C03AF0F3503926F4503A22F4
:1078120039C0F6FF3AC0F7FF0800F550D2EC3AF053
:107822003B2A38503B5CD8B01200E8D73C0EF66ECB
:10783200750EF76E000EF86E00EE45F010EE0AF0CF
:107842000900F5CFEEFFE550E150FAE100EE01F05C
:10785200240EEE6AE806FDE14F904F92000EF86E9C
:10786200000199EF3AF0000E3A6E36AE06D0356C52
:10787200361ED8B0362A010E3A6E38AE04D0376CB6
:10788200381ED8B0382A37503810D8B418D0010E64
:10789200396E04D0D89037363836392A38AEFAD70E
:1078A2003750355C38503658D8A004D03750355E42
:1078B2003850365AD89038323732392EF1D73A50BA
:1078C200D8B404D0356C361ED8B0362A35C035F05F
:1078D20036C036F01200000E406E3EAE06D03D6C51
:1078E2003E1ED8B03E2A010E406E3CAE06D03B6C26
:1078F2003C1ED8B03C2A010E401A000E426E000E09
:10790200416E3D503E10D8B41CD0010E3F6E04D0E3
:10791200D8903D363E363F2A3EAEFAD7D890413611
:1079220042363D503B5C3E503C58D8A005D03D50BD
:107932003B5E3E503C5A4180D8903E323D323F2E13
:10794200EDD74050D8B404D0416C421ED8B0422A80
:1079520041C03BF042C03CF012000600FACF27F0D3
:10796200FBCF28F0E9CF29F0EACF2AF0E1CF2BF0C4
:10797200E2CF2CF0D9CF2DF0DACF2EF0F3CF2FF0CB
:10798200F4CF30F0F6CF31F0F7CF32F0F8CF33F05A
:10799200F5CF34F0F2A406D0F294D10ED66ED768A9
:1079A200E2EC3AF034C0F5FF33C0F8FF32C0F7FF23
:1079B20031C0F6FF30C0F4FF2FC0F3FF2EC0DAFF54
:1079C2002DC0D9FF2CC0E2FF2BC0E1FF2AC0EAFF85
:1079D20029C0E9FF28C0FBFF27C0FAFF4F92110020
:1079E2000F0E9516969496929690000E026E1E0EAB
:1079F200016E01500210D8A4FCD7020EB5EC3AF089
:107A0200000E026E010E016E01500210D8A4FCD7C6
:107A1200280EB5EC3AF0000E026E010E016E015016
:107A22000210D8A4FCD70C0EB5EC3AF0000E026E90
:107A3200010E016E01500210D8A4FCD7010EB5EC64
:107A42003AF0000E026E010E016E01500210D8A42F
:107A5200FCD7060EB5EC3AF0000E026E010E016E76
:107A620001500210D8A4FCD75BEC3BF01200000ED0
:107A72003E6E3CAE0AD03C1E3B1E3A1E396C000ED6
:107A82003A223B223C22010E3E6E38AE0AD0381E0C
:107A9200371E361E356C000E362237223822010E72
:107AA2003E1A000E3F6E000E406E000E416E000E3A
:107AB200426E39503A103B103C10D8B42AD0010E15
:107AC2003D6E06D0D89039363A363B363C363D2AA2
:107AD2003CAEF8D7D8903F36403641364236395020
:107AE200355C3A5036583B5037583C503858D8A03D
:107AF20009D03950355E3A50365A3B50375A3C50CD
:107B0200385A3F80D8903C323B323A3239323D2E9D
:107B1200E1D73E50D8B408D0421E411E401E3F6CF1
:107B2200000E4022412242223FC035F040C036F0D2
:107B320041C037F042C038F01200100E0A18D8A423
:107B420039D02050D8A436D01B50D8A404D0A9ECE8
:107B52003AF0010E1B6EAFEC3AF0540E376E200E67
:107B6200386EB0EC3BF0010E206E000E1A6E0A0E5B
:107B720008EC3BF0090E1C6002D01C2A02D0000E59
:107B82001C6E400EDAEC3AF01C50300FC3EC3AF0A7
:107B92004E0E366E200E376E060E386EFAEC3BF045
:107BA2001C50300FD2EC3AF00A0ED2EC3AF00D0E25
:107BB200D2EC3AF0200E0A18D8A425D02150D8A42D
:107BC20022D01B50D8A404D0A9EC3AF0010E1B6EAF
:107BD200AFEC3AF0590E376E200E386EB0EC3BF037
:107BE200010E216E0A0E28EC3BF0090E1D6002D038
:107BF2001D2A02D0000E1D6E420EDAEC3AF01D5024
:107C0200300FC3EC3AF0400E0A18D8A425D0225007
:107C1200D8A422D01B50D8A404D0A9EC3AF0010E6B
:107C22001B6EAFEC3AF05E0E376E200E386EB0EC83
:107C32003BF0010E226E640E08EC3BF0090E1E6052
:107C420002D01E2A02D0000E1E6E440EDAEC3AF06A
:107C52001E50300FC3EC3AF0800E0A18D8A45ED042
:107C62002350D8A45BD01B50D8A404D0A9EC3AF07E
:107C7200010E1B6EAFEC3AF0630E376E200E386EBB
:107C8200B0EC3BF0010E236E090E1F6002D01F2ADA
:107C920002D0000E1F6E460EDAEC3AF01F50300F83
:107CA200C3EC3AF084EC3BF04A0EDAEC3AF0C4CF83
:107CB2003BF03C6A000E3E6E640E3D6E6CEC3CF096
:107CC2003B50300FC3EC3AF0000E386E640E376E44
:107CD200C4CF35F0366A34EC3CF035C03BF036C0E8
:107CE2003CF0000E3E6E0A0E3D6E6CEC3CF03B50DA
:107CF200300FC3EC3AF0C4CF35F0366A000E386E5E
:107D02000A0E376E34EC3CF03550300FC3EC3AF0CB
:107D1200250E376E200E386EB0EC3BF0300E0A188E
:107D2200D8A40CD02050D8B403D02150D8A406D067
:107D3200010E1A6E010E206E010E216E0A50D8A499
:107D420005D02304D8A402D0000E236E0A50D8A472
:107D520005D02204D8A402D0000E226E0A50D8A464
:107D620005D02104D8A402D0000E216E0A50D8A456
:107D720005D02004D8A402D0000E206E1A50D8B428
:107D8200120005500610D8A41200A3EC3AF0010E1E
:107D9200066E900E056E12004E5004E1650E4D5CAB
:107DA200D8A031D0000E0D6E800E356E840E366E68
:107DB2001E0E376E000E386E4DC039F04EC03AF0CE
:107DC2003B6A3C6A38EC3DF035C003F036C004F043
:107DD20047500001646F656B0001641F651F644BAF
:107DE200652B0350000164250001606F04500001FF
:107DF20065210001616F000E0001636F030E626F67
:107E0200C7EC3BF0B6D04E503FE1650E4D5CD8B0AA
:107E12003BD04E5004E13D0E4D5CD8A035D0000E53
:107E22000D6ECD50CF0B1009CD6E400E356E420E49
:107E3200366E0F0E376E000E386E4DC039F04EC0E2
:107E42003AF03B6A3C6A38EC3DF035C003F036C08C
:107E520004F047500001646F656B0001641F651FE9
:107E6200644B652B0350000164250001606F0450D0
:107E7200000165210001616F000E0001636F030EB6
:107E8200626FC7EC3BF075D04E5039E13D0E4D5C50
:107E9200D8B035D04E5004E11F0E4D5CD8A02FD083
:107EA200000E0D6ECD98CD8A47500001646F656B50
:107EB2000001641F651F644B652B4DC039F04EC035
:107EC2003AF03B6A3C6A200E356EA10E366E070E02
:107ED200376E000E386E38EC3DF0000164513524E7
:107EE2000001606F0001655136200001616F000ED4
:107EF2000001636F030E626FC7EC3BF03AD04E5045
:107F02003DE11F0E4D5CD8B039D04E5004E1150E44
:107F12004D5CD8A033D0000E0D6ECD88CD8A47506F
:107F22000001646F656B0001641F651F644B652B64
:107F32004DC039F04EC03AF03B6A3C6A900E356E45
:107F4200D00E366E030E376E000E386E38EC3DF0F2
:107F52000001645135240001606F00016551362033
:107F62000001616F000E0001636F030E626FC7ECC8
:107F72003BF060C003F061C004F02BD04E5029E109
:107F8200150E4D5CD8B025D00C0E0D6ECD88CD8A65
:107F920047500001646F656B0001641F651F644BED
:107FA200652B240E356EF40E366E000E376E000E03
:107FB200386E4DC039F04EC03AF03B6A3C6A38EC3C
:107FC2003DF0000164513524036E000165513620F5
:107FD200046E03C064F004C065F00001641F651FF5
:107FE200644B652BFF0E00016425036EFF0E00013A
:0E7FF2006521046E0450486E03C00BF01200AF
:020000040020DA
:08000000FFFFFFFFFFFFFFFF00
:020000040030CA
:0E000000240E3F1EFF8181FF0FC00FE00F4056
:00000001FF
