:0620000007EF10F0FFD70E
:0A2008003D82BFED3FF0A2EF3FF074
:10201800000102030405060708092A002B202020D6
:102028002A2A4672617365206573636F6E646964FA
:1020380061203A2D29202A2A00486F6C6120416CC2
:10204800756D6E6F7300424F54312000424F54310A
:1020580000424F543200424F543300424F54340030
:012068000077
:107F3A00010120FFFFFF0A04E8033A0EF66E7F0EE6
:107F4A00F76E000EF86E00EE33F010EE0AF009003C
:107F5A00F5CFEEFFE550E150FAE100EE01F0240E14
:107F6A00EE6AE806FDE13D903D92000EF86E0001D2
:107F7A0002EF10F00600FACF25F0FBCF26F0E9CF8A
:107F8A0027F0EACF28F0E1CF29F0E2CF2AF0D9CFC3
:107F9A002BF0DACF2CF0F3CF2DF0F4CF2EF0F6CF72
:107FAA002FF0F7CF30F0F8CF31F0F5CF32F0F2A45E
:107FBA0004D0F294D10ED66ED76832C0F5FF31C024
:107FCA00F8FF30C0F7FF2FC0F6FF2EC0F4FF2DC018
:107FDA00F3FF2CC0DAFF2BC0D9FF2AC0E2FF29C069
:107FEA00E1FF28C0EAFF27C0E9FF26C0FBFF25C042
:067FFA00FAFF3D921100A8
:020000040020DA
:08000000FFFFFFFFFFFFFFFF00
:020000040030CA
:0E000000240E3F1EFF8181FF0FC00FE00F4056
:00000001FF
